:100000000C9434000C9451000C9451000C94510049
:100010000C9451000C9451000C9451000C9451001C
:100020000C9451000C9451000C9451000C9451000C
:100030000C9451000C9451000C9451000C945100FC
:100040000C9451000C9451000C9451000C945100EC
:100050000C9451000C9451000C9451000C945100DC
:100060000C9451000C94510011241FBECFEFD8E026
:10007000DEBFCDBF13E0A0E0B1E0E2E8FFE002C0E8
:1000800005900D92A634B107D9F713E0A6E4B3E0CA
:1000900001C01D92AA35B107E1F70E94E3030C9459
:1000A000BF070C9400009BB19F709BB99BB1282F98
:1000B000207F922B9BB92898299AEFE3FCE931978E
:1000C000F1F700C000002998EFE3FCE93197F1F760
:1000D00000C000009BB19F709BB99BB18295807F4F
:1000E000892B8BB92898299A8FE39CE90197F1F71E
:1000F00000C000002998EFE3FCE93197F1F700C058
:1001000000000895CF93DF9383E084B980EF8AB92C
:10011000C3E5D0E088E290E0FE0109958CE090E034
:10012000FE01099586E090E0FE01099581E090E0EE
:10013000FE01099580E890E0FE010995DF91CF91DD
:1001400008959BB19F709BB99BB1282F207F922B64
:100150009BB9289A299A2998EFE3F1E03197F1F7B2
:1001600000C000009BB19F709BB99BB18295807FBE
:10017000892B8BB9289A299A29988FE391E00197C6
:10018000F1F700C000000895CF93DF93EC01888160
:10019000882331F021960E94A10089918823D9F704
:1001A000DF91CF910895EF92FF920F931F93CF931A
:1001B000DF937C01E82FFF2DDF010D900020E9F790
:1001C0001197AE1BBF0BA031B10518F40E94C400FB
:1001D00021C08C01C0E0D0E0F80181918F010E9424
:1001E000A1002196C031D105B9F780EC0E945300DF
:1001F000F7018089882371F087010F5E1F4F0E94ED
:10020000A1002196F80181918F01882319F0C03255
:10021000D105A9F7DF91CF911F910F91FF90EF903A
:100220000895CF93DF93CDB7DEB728970FB6F89434
:10023000DEBF0FBECDBFBE016F5F7F4F4AE050E013
:100240000E948E07CE0101960E94C40028960FB628
:10025000F894DEBF0FBECDBFDF91CF910895009718
:1002600029F08130910509F0F6C07BC06730710537
:1002700009F453C068307105BCF463307105E9F1CD
:100280006430710554F46130710579F162307105A3
:1002900084F56115710529F1089565307105A9F19D
:1002A00066307105B4F52DC06B30710509F445C099
:1002B0006C3071053CF469307105B9F16A30710533
:1002C000C4F52FC06D30710509F43FC06D30710564
:1002D000C4F16E307105E9F16F30710509F0BBC0F2
:1002E0003CC080E80E945300089581E80E945300BA
:1002F000089582E80E945300089583E80E94530005
:10030000089584E80E945300089585E80E945300F0
:10031000089586E80E945300089587E80E945300DC
:10032000089588E80E945300089589E80E945300C8
:1003300008958AE80E94530008958BE80E945300B4
:1003400008958CE80E94530008958DE80E945300A0
:1003500008958EE80E94530008958FE80E9453008C
:1003600008956730710509F453C068307105BCF415
:1003700063307105E9F16430710554F46130710541
:1003800079F16230710584F56115710529F10895DF
:1003900065307105A9F166307105B4F52DC06B307B
:1003A000710509F445C06C3071053CF46930710584
:1003B000B9F16A307105C4F52FC06D30710509F4CB
:1003C0003FC06D307105C4F16E307105E9F16F30D9
:1003D000710509F040C03CC080EC0E9453000895B4
:1003E00081EC0E945300089582EC0E94530008950E
:1003F00083EC0E945300089584EC0E9453000895FA
:1004000085EC0E945300089586EC0E9453000895E5
:1004100087EC0E945300089588EC0E9453000895D1
:1004200089EC0E94530008958AEC0E9453000895BD
:100430008BEC0E94530008958CEC0E9453000895A9
:100440008DEC0E94530008958EEC0E945300089595
:100450008FEC0E945300089581E00E94530008959C
:1004600082E00E94530008958EE00E945300089598
:100470008CE00E94530008958FE00E94530008957D
:100480008CE00E94530008958CE00E945300089570
:1004900088E00E945300089588E10E945300089567
:1004A0008CE10E945300089587E00E945300089554
:1004B00086E00E94530008950F931F93CF93DF931C
:1004C000062F172FFC01EE0FFF1FEB5CFC4F808106
:1004D0000E945300C02FD12F08E010E0888122969F
:1004E0000E94A10001501040C9F7DF91CF911F91E8
:1004F0000F910895CF93DF930F92CDB7DEB7DC0154
:100500006983B901898190E09C0102C035952795E6
:100510004A95E2F720FD25C09D01220F331FF90106
:10052000E25BFC4F808191810196918380832A5BFD
:100530003C4FF9011182108268177907A4F5FD017B
:10054000EA5AFC4F8081882319F481E080832EC011
:10055000AA0FBB1FA25BBC4F11961C921E9280E09B
:1005600025C046E453E09D01220F331FFA01E20F3C
:10057000F31F80819181019691838083225B3C4FA0
:10058000F901118210826417750778F4FD01EA5AA7
:10059000FC4F1082AA0FBB1FA40FB51F11961C920F
:1005A0001E9280E003C080E001C080E00F90DF91E8
:1005B000CF91089582E68093B80084E08093BC00D8
:1005C0001092B900089584EE8093BC00ECEBF0E04B
:1005D00080818823ECF708958093BB0084E88093A2
:1005E000BC00ECEBF0E080818823ECF7089584EC0C
:1005F0008093BC00ECEBF0E080818823ECF78091E5
:10060000BB00089585E88093BC00ECEBF0E08081AE
:100610008823ECF708958130F9F0823001F18330BE
:1006200009F1843011F1853019F1863021F18730DC
:1006300029F1883031F1893039F18A3041F18B303C
:1006400049F18C3051F18D3059F18E3061F18F309C
:1006500069F180E090E0089581E090E0089582E003
:1006600090E0089583E090E0089584E090E008959C
:1006700085E090E0089586E090E0089587E090E0BE
:10068000089588E090E0089589E090E008958AE078
:1006900090E008958BE090E008958CE090E008955C
:1006A0008DE090E008958EE090E008958FE090E076
:1006B00008951F93CF93DF93182FEB010E94E3025D
:1006C00080ED0E94EC02812F0E94EC020E94E30266
:1006D00081ED0E94EC020E94F702182F0E94020393
:1006E000C130D10509F41F71812F82958F700E944E
:1006F0000B03D82FC92F812F8F700E940B032D2F32
:100700003C2F220F331FA901440F551F440F551FC3
:10071000240F351F820F931FDF91CF911F910895F2
:1007200083B193B143B121E082FD20E081E094FDEB
:1007300080E0282330E081E090E043FF02C080E0C9
:1007400090E082239323009789F493B123B181E051
:1007500094FD80E0882329F081E023FD80E0882358
:1007600041F41C9909C082E090E0089580E090E097
:10077000089581E090E0089583E090E008950E945C
:1007800090038130910539F40E942C0280E091E0C1
:100790000E94D30008950E9490038230910539F49D
:1007A0000E942C028EE091E00E94D30008950E94E6
:1007B00090038330910531F40E942C028FE191E087
:1007C0000E94D3000895CF93DF9300D000D000D0D3
:1007D000CDB7DEB783E084B980EF8AB981E087B90D
:1007E0008EE088B985B1837E85B92F9A8FEF97E81F
:1007F000A3E181509040A040E1F700C000000E94BA
:1008000082000E942C028EE291E00E94C4008FEFD1
:1008100091EEA4E081509040A040E1F700C00000BC
:100820000E94DA020E942C0289E391E00E94D30028
:100830000F2EFEE16F2E7724F02D0F2EFEE0CF2E2F
:10084000DD24F02D0F2EFDE0AF2EBB24F02DA5E60C
:10085000B1E0AB83BC839A2E8B2E66B180E090E032
:1008600041E024E630E00E947A02882309F40EC2B7
:100870000E942C0204E511E0C8010E94C4000E94FD
:100880002C02C5010E94110185E691E00E94C4007E
:10089000C6010E9411018FE39CE90197F1F700C0A6
:1008A00000000E942C02C8010E94C4000E942C0279
:1008B000C3010E94110187E691E00E94C40082E01A
:1008C00061E070E00E9459037C0181E060E070E02B
:1008D0000E9459038C010E9490039C0191E0EA144C
:1008E000FB0409F090E081E00C151D0509F080E0A3
:1008F0008923482F50E081E090E02115310511F067
:1009000080E090E0842B952B009749F0409A0E945C
:10091000BF030E94900383309105C9F740980E945D
:100920002C0283E791E00E94D300A1E0B0E0BA83FB
:10093000A9836CC0E981FA813196FA83E9832EE4B8
:10094000E132F2070CF462C00E942C0284E591E0CF
:100950000E94C4000E942C02C5010E9411018B81DB
:100960009C810E94C400C6010E9411018FE39CE992
:100970000197F1F700C000000E942C0284E591E08D
:100980000E94C4000E942C02C3010E94110187E64C
:1009900091E00E94C4000E942C0283E791E00E9433
:1009A000D30082E061E070E00E9459037C0181E0A5
:1009B00060E070E00E9459038C010E9490039C014A
:1009C00091E0EA14FB0409F090E081E00C151D05AC
:1009D00009F080E08923482F50E081E090E0211564
:1009E000310511F080E090E0842B952B009761F0A9
:1009F000409A0E94BF030E94900383309105C9F77B
:100A000040981A82198202C01A82198266B180E067
:100A100090E041E024E630E00E947A02882309F465
:100A200022C10E942C028AE891E00E94D3000F2E7E
:100A3000FCE34F2E5524F02DFF24F394EE2466B1F1
:100A400080E090E041E024E630E00E947A028823D2
:100A500009F4A2C00E942C0287EA91E00E94D30010
:100A6000AFE3BCE91197F1F700C0000000E010E02F
:100A7000E1E0F0E00F2EF8E12F2E3324F02DFE837D
:100A8000ED8325C00F2D1E2D0BC00F2EF7E1AF2ECD
:100A9000BB24F02D05C00F2EFBE3CF2EDD24F02D5F
:100AA0008D819E8101969E838D83A1E08B3E9A0766
:100AB00074F00E942C02C5010E941101892D982D0D
:100AC0000E94C400C6010E9411011E821D8266B1EF
:100AD00080E090E041E024E630E00E947A02882342
:100AE00031F00115110571F200E010E0D9CF66B1C7
:100AF0008F2D9E2D42E024E630E00E947A0288236A
:100B0000F1F00115110569F40894A11CB11CB8E1BC
:100B1000AB16B1042CF2C501B1010E9467075C015C
:100B2000BFCF0894C11CD11CECE3CE16D1040CF449
:100B3000B7CFC601B2010E9467076C01B1CF66B1A1
:100B400082E090E043E024E630E00E947A028823CD
:100B500089F00115110539F40894A108B108BB20EA
:100B60000CF09ECF92CF0894C108D108DD200CF084
:100B700097CF91CF63B183E090E047E024E630E087
:100B80000E947A02882309F48BCF0E942C028AE803
:100B900091E00E94D30053CF66B181E090E042E043
:100BA00024E630E00E947A02882309F44AC00E94B9
:100BB0002C0287EC91E00E94D3008FEF99EFA0E028
:100BC00081509040A040E1F700C00000222433246F
:100BD00023940EE110E014C032010894211C311C52
:100BE0009BEE291691E039065CF00E942C028EEDF6
:100BF00091E00E94C400C3010E9411012224332409
:100C000066B180E090E041E024E630E00E947A02A4
:100C1000882331F0AEE16A167104F1F23801DDCFBC
:100C200063B183E090E047E024E630E00E947A027E
:100C3000882399F20E942C028AE891E00E94D30056
:100C4000FECE63B183E090E047E024E630E00E940E
:100C50007A02882309F4F3CE0E942C0283E791E004
:100C60000E94D30067CE63B183E090E047E024E6C2
:100C700030E00E947A02882309F45CCE40980E94FA
:100C80002C0289E391E00E94D300E7CD66B181E0B8
:100C900090E042E024E630E00E947A02882309F4E2
:100CA0006CC00E942C028BEE91E00E94D30001E008
:100CB00010E00F2EF2E0EF2EF2E0FF2EF02D442494
:100CC000552443940F2EFBEE2F2EF1E03F2EF02DF6
:100CD0000FC00F5F1F4FB7E201311B074CF00E949E
:100CE000BF030E942C02C1010E94D30000E010E06B
:100CF00066B180E090E041E024E630E00E947A02B4
:100D0000882349F1409A0E942C02C7010E94D30017
:100D10005A82498212C0E981FA813196FA83E983C5
:100D200027E2E131F2074CF00E942C02C7010E9439
:100D3000D3000E94BF031A82198266B180E090E05E
:100D400041E024E630E00E947A02882321F34098B3
:100D50000E94BF03BECF63B183E090E047E024E68A
:100D600030E00E947A02882309F4B3CF0E942C025B
:100D700089E391E00E94D30070CD66B182E090E0FB
:100D800043E024E630E00E947A02882309F465CD2E
:100D90000E942C020E94900381309105E9F488E0C2
:100DA00092E00E94D30081E090E00F2EF8E64F2EF3
:100DB000F2E05F2EF02D06E712E00F2EF4E9EF2EA1
:100DC000F2E0FF2EF02D0F2EF8E42F2EF2E03F2E52
:100DD000F02D9A8389833CC08230910529F488E202
:100DE00092E00E94D300DFCF83309105E1F688E4E2
:100DF00092E00E94D300D7CFA981BA811196BA831D
:100E0000A983EEE4A032BE0719F50E942C020E94CD
:100E100090038130910539F488E092E00E94D3007C
:100E20001A82198215C08230910539F488E292E065
:100E30000E94D3001A8219820BC08330910531F4CD
:100E4000C1010E94D3001A82198202C01A8219823B
:100E500066B180E090E041E024E630E00E947A0252
:100E6000882319F1409A0E942C02C2010E94D300EB
:100E70000E9490038130910531F40E942C02C80138
:100E80000E94D300F5CF0E9490038230910531F487
:100E90000E942C02C7010E94D300EACF0E94900357
:100EA0008330910529F74098A7CF63B183E090E0A4
:100EB00047E024E630E00E947A02882309F49CCFC0
:100EC0000E942C0289E391E00E94D300C6CC97FBDC
:100ED000092E07260AD077FD04D00CD006D00020BA
:100EE0001AF4709561957F4F0895F6F79095819566
:100EF0009F4F0895AA1BBB1B51E107C0AA1FBB1F30
:100F0000A617B70710F0A61BB70B881F991F5A9595
:100F1000A9F780959095BC01CD010895FB019F0133
:100F2000E8944230C4F04532B4F44A3029F497FBD7
:100F30001EF4909581959F4F642F77270E947A0722
:100F4000805D8A330CF0895D8193CB010097A1F716
:100F500016F45DE251931082C9010C94AF07DC01D5
:100F6000FC01672F71917723E1F7329704C07C91E0
:100F70006D9370836291AE17BF07C8F30895F8941C
:020F8000FFCFA1
:100F8200572F4C6576656C203A204C6F7700572FAF
:100F92004C6576656C203A204D656469756D005725
:100FA2002F4C6576656C203A204869676800574582
:100FB2004C434F4D4521212100313A4175746F2038
:100FC20020323A4D616E75616C333A53656D6941F9
:100FD20075746F00526566696C6C2073746172740B
:100FE20073206174003A002070657263656E7461EB
:100FF200676500313A53657474696E677320202007
:10100200202020343A6261636B00313A53657420C8
:1010120074696D6520323A726566696C6C202520B0
:10102200343A6261636B00313A4368616E676520EE
:10103200323A5570202020333A446F776E202020B8
:10104200343A4261636B00313A4368616E676520EE
:1010520020202020202020343A4261636B0020703F
:10106200657263656E746167653A00313A4F4E206E
:101072002020202020202020202020343A424143DA
:101082004B00313A4F464600572F4C6576656C202F
:101092003A204C6F77202020313A207374617274A9
:1010A20020343A4261636B00572F4C6576656C20A1
:1010B2003A204D656469756D313A207374617274BA
:1010C20020343A4261636B00572F4C6576656C2081
:1010D2003A20486967682020313A2073746172743B
:1010E20020343A4261636B004D6F746F7220537407
:1010F2006172746564004D6F746F72206973204F62
:101102004E2020202020572F4C6576656C203A20F7
:101112004C6F77004D6F746F72206973204F4E20B1
:1011220020202020572F4C6576656C203A204D6593
:101132006469756D0000000A0000001F0011000EB6
:1011420000000000000A000000040000000E001170
:101152000011000E0000000A00000004000400005C
:10116200001F000000000011000A0011000400002E
:10117200000E001100010003000500090009000B28
:10118200001B00180000000A000000040004000018
:10119200000E00110000000A00000004000400110B
:1011A200000A0004000A0015001100110011000AD3
:1011B2000004000000400048005000580060006831
:0611C2000070007800003F
:0400000300000104F4
:00000001FF
